:100000000C9463000C948B000C948B000C948B006C
:100010000C948B000C948B000C948B000C94680453
:100020000C948B000C948B000C948B000C948B0024
:100030000C948B000C948B000C948B000C948B0014
:100040000C941E040C948B000C948B000C948B006D
:100050000C948B000C948B000C948B000C948B00F4
:100060000C94EA040C948B0000000000230026008E
:1000700029000200000000240027002A00000000E0
:1000800000250028002B00040404040404040402D6
:100090000202020202030303030303010204081025
:1000A00020408001020408102001020408102000F2
:1000B0000000080002010000030407000000000027
:1000C00000000000090611241FBECFEFD8E0DEBFFC
:1000D000CDBF11E0A0E0B1E0ECEDF0E102C0059091
:1000E0000D92A639B107D9F722E0A6E9B1E001C027
:1000F0001D92A238B207E1F710E0C3E6D0E004C0D9
:100100002197FE010E946608C236D107C9F70E94F6
:1001100029060C946C080C940000833081F028F4BC
:10012000813099F08230A9F008958730A9F08830A5
:10013000C9F08430B1F4809180008F7D03C080913C
:1001400080008F7780938000089584B58F7784BD79
:10015000089584B58F7DFBCF8091B0008F77809319
:10016000B00008958091B0008F7DF9CF1F93CF9399
:10017000DF93282F30E0F901E155FF4F8491F90119
:10018000E556FF4FD491F901E957FF4FC491CC23B5
:10019000A9F0162F81110E948D00EC2FF0E0EE0FD8
:1001A000FF1FE358FF4FA591B4918FB7F894EC91DE
:1001B000111108C0D095DE23DC938FBFDF91CF9162
:1001C0001F910895DE2BF8CFCF93DF9390E0FC01D1
:1001D000E556FF4F249189579F4FFC018491882356
:1001E000D1F090E0880F991FFC01ED58FF4FA591C9
:1001F000B491FC01E358FF4FC591D49161110EC039
:100200009FB7F8948C91E22FE0958E238C932881F0
:10021000E223E8839FBFDF91CF9108958FB7F894D1
:10022000EC91E22BEC938FBFF6CF3FB7F89480911F
:10023000660290916702A0916802B091690226B5AA
:10024000A89B05C02F3F19F00196A11DB11D3FBF0E
:10025000BA2FA92F982F8827BC01CD01620F711DDD
:10026000811D911D42E0660F771F881F991F4A95D7
:10027000D1F708958F929F92AF92BF92CF92DF9263
:10028000EF92FF924B015C010E9415016B017C0112
:100290000E9415016C197D098E099F09683E734003
:1002A00081059105A8F321E0821A9108A108B108FF
:1002B00088EEC80E83E0D81EE11CF11C8114910465
:1002C000A104B10429F7FF90EF90DF90CF90BF9089
:1002D000AF909F908F90089508950895AF92BF9228
:1002E000CF92DF92EF92FF920F931F93CF93DF9302
:1002F0006C017B018B01040F151FEB015E01AE1831
:10030000BF08C017D10759F06991D601ED91FC9152
:100310000190F081E02DC6010995892B79F7C5017F
:10032000DF91CF911F910F91FF90EF90DF90CF90D1
:10033000BF90AF9008952091FE01260F3327331F01
:1003400021323105ECF420912202FC0190E080E0A2
:10035000243069F082E00895A091FE012191AC0162
:1003600042525E4FA40FB52FB11D2C9301968617F4
:1003700098F38091FE01680F6093FE0180E008957C
:1003800081E008951092220281E08093240210926D
:10039000230261E082E10E94B60061E083E10E94F5
:1003A000B600E9EBF0E080818E7F808380818D7FD5
:1003B000808388E48093B80085E48093BC0008952E
:1003C000CF93DF9391E09093DD018823B9F0C09142
:1003D000B800D091BA008091BC008A7B8093BC00A9
:1003E00060E082E10E94B60060E083E10E94B60016
:1003F0000E94C201D093BA00C093B800DF91CF91A0
:1004000008950895E0914F0280914E02E81730F46C
:10041000F0E0E854FE4F808190E008958FEF9FEF69
:10042000089590914F0280914E022FEF3FEF981761
:1004300048F4E92FF0E0E854FE4F208130E09F5F60
:1004400090934F02C901089580914E0290914F02FE
:10045000891B990B0895CF92DF92EF92FF920F9331
:100460001F93CF93DF937C01CB018A012091B701C9
:10047000222389F0EB016B01C40ED51ECC15DD05DE
:1004800069F06991D701ED91FC910190F081E02D27
:10049000C7010995F3CF642F0E949B01C801DF912A
:1004A000CF911F910F91FF90EF90DF90CF90089523
:1004B000CF93DF931F92CDB7DEB769832091B70149
:1004C0002223F9F020914C02203258F021E030E054
:1004D000FC013383228390E080E00F90DF91CF9185
:1004E000089580914D02E82FF0E0E956FE4F998182
:1004F00090838F5F80934D0280934C0281E090E067
:10050000ECCF61E0CE0101960E949B01F7CFCF9224
:10051000DF92EF92FF920F931F93CF93DF93FC0133
:10052000C48121E02093B701C093960110924D023F
:1005300010924C028385682B8AE692E00E94580252
:10054000D0914C02D13208F092C00E9415016B018B
:100550007C0180912202811165C082E08093220299
:1005600081E0809324028FEF809321021092460253
:10057000D0934502A7E9B1E0E5E2F2E080E0D813CC
:1005800085C01092470280914702CC0FC82BC093C0
:10059000470280912302813009F07CC0109223022F
:1005A0000E9415016B017C01809147028093BB0082
:1005B0008091D9019091DA01A091DB01B091DC0129
:1005C000892B8A2B8B2B99F00E9415010091D90160
:1005D0001091DA012091DB013091DC016C197D0969
:1005E0008E099F090617170728073907E0F1809140
:1005F000BC0083FDD9CF85EC8093BC000E9415011F
:100600006B017C0180912202823009F445C0809107
:1006100021028F3F61F180912102803241F180916E
:10062000210225C08091D9019091DA01A091DB01CE
:10063000B091DC01892B8A2B8B2B09F48ACF0E9485
:1006400015010091D9011091DA012091DB0130915F
:10065000DC016C197D098E099F0906171707280709
:10066000390708F076CF8091D8010E94E0011092FE
:100670004D0210924C021092B701DF91CF911F9161
:100680000F91FF90EF90DF90CF9008959D919193FF
:100690008F5F75CF85EEB0CF8091D9019091DA014F
:1006A000A091DB01B091DC01892B8A2B8B2B09F403
:1006B000A9CF0E9415010091D9011091DA01209172
:1006C000DB013091DC016C197D098E099F09061749
:1006D00017072807390708F095CFC5CF089590E090
:1006E00080E00895FC0101900020E9F73197AF0107
:1006F000481B590BBC0186E792E00C946E0185ED16
:100700008093BC008091D9019091DA01A091DB0126
:10071000B091DC010796A11DB11D23E0B695A79508
:10072000979587952A95D1F72091BC0024FD03C0A9
:100730001092220208954091D9015091DA016091FE
:10074000DB017091DC01452B462B472B69F30097A9
:10075000A105B10541F02AE22A95F1F700C0019701
:10076000A109B109E1CF8091D8010C94E0010F9368
:100770001F93CF938C01C62F0E9487026C2F646059
:10078000C8010E9487026C2F6B7FC8010E948702FC
:1007900083EC90E00197F1F7CF911F910F910895AD
:1007A0000F931F93CF93DF938C01D62FC42F607FBD
:1007B000642B0E94B70380E1D89FB00111246C2BF9
:1007C000C801DF91CF911F910F910C94B703CF9384
:1007D000DF93CDB7DEB728970FB6F894DEBF0FBE14
:1007E000CDBF98E0E1E0F1E0DE01119601900D92BD
:1007F0009A95E1F790917E02981708F48FEF90E0B8
:10080000880F991F21E030E02C0F3D1F820F931FAE
:10081000FC016081606840E086E792E028960FB6B0
:10082000F894DEBF0FBECDBFDF91CF910C94D00303
:1008300041E00E94D00381E090E008951F920F9262
:100840000FB60F9211242F933F938F939F93AF93E3
:10085000BF938091620290916302A0916402B09173
:1008600065023091610223E0230F2D3758F5019680
:10087000A11DB11D209361028093620290936302D7
:10088000A0936402B0936502809166029091670222
:10089000A0916802B09169020196A11DB11D8093DB
:1008A000660290936702A0936802B0936902BF91B9
:1008B000AF919F918F913F912F910F900FBE0F900D
:1008C0001F90189526E8230F0296A11DB11DD2CFC7
:1008D0001F920F920FB60F9211242F933F934F93B5
:1008E0005F936F937F938F939F93AF93BF93EF9398
:1008F000FF938091550290915602A0915702B091BA
:100900005802892B8A2B8B2BD1F190915002E091C8
:100910005102F09152028081892780838091550293
:1009200090915602A0915702B091580218161906DC
:100930001A061B069CF48091550290915602A091D4
:100940005702B09158020197A109B109809355024D
:1009500090935602A0935702B0935802FF91EF91E3
:10096000BF91AF919F918F917F916F915F914F91C7
:100970003F912F910F900FBE0F901F90189580916F
:100980000001E2E7F0E0E4919FEF90930001E13095
:1009900051F030F0E23069F060E00E94B600DECF46
:1009A00010926E00F9CF90916F009D7F90936F0031
:1009B000F3CF909170009D7F9093700091E09093A1
:1009C000B0009091B100987F94609093B100109224
:1009D000B300E2CF1F920F920FB60F9211242F9304
:1009E0003F934F935F936F937F938F939F93AF93B7
:1009F000BF93EF93FF938091B900887F803609F40D
:100A00004AC0F0F5883209F4A7C018F5803109F41E
:100A10009BC0B8F4882309F4F9C0883009F494C065
:100A2000FF91EF91BF91AF919F918F917F916F91C6
:100A30005F914F913F912F910F900FBE0F901F909C
:100A40001895883109F488C0803251F780932102CB
:100A500014C0803409F49DC040F48033B9F3883366
:100A6000F9F68093210285ECB0C0803509F485C089
:100A7000883509F496C0883499F60E947F03D0CF58
:100A8000883909F48CC038F5883729F050F4883655
:100A900011F0803729F683E0809322021092200221
:100AA00057C0883809F47BC0803919F0803809F0C4
:100AB000B7CF80912002803208F071C0E09120020F
:100AC00081E08E0F809320028091BB00F0E0E05027
:100AD000FE4F80833DC0803B39F0E0F4803A09F45A
:100AE00079C0883A09F09CCF84E08093220210926A
:100AF000FF011092FE01E0914A02F0914B0209952C
:100B00008091FE0181110FC081E08093FE0110925F
:100B1000DE0109C0803C09F4A6CF883C09F4A3CFCC
:100B2000883B09F07DCFE091FF0181E08E0F80933B
:100B3000FF01F0E0E252FE4F80818093BB00909174
:100B4000FF018091FE0129C0809147028093BB0084
:100B500085EC8093BC0064CF909146028091450261
:100B6000981758F5E091460281E08E0F8093460277
:100B7000F0E0EB5DFD4F8081E9CFE091460281E03E
:100B80008E0F809346028091BB00F0E0EB5DFD4F3D
:100B9000808390914602809145029817C8F285E8BB
:100BA000D8CFE091460281E08E0F8093460280917B
:100BB000BB00F0E0EB5DFD4F80838091240281114A
:100BC0005CCF81E08093230284EA8093BC00109282
:100BD000220226CF85EC8093BC00109222028091E5
:100BE0002002803230F4E0912002F0E0E050FE4F2D
:100BF00010826091200270E0E0914802F091490279
:100C000080E092E00995109220020ACF1092210212
:100C100034CFEAE6F2E01382128288EE93E0A0E09D
:100C2000B0E084839583A683B7838DE091E09183C0
:100C30008083E6E7F2E0138212828FE191E09183F4
:100C4000808387E2848380E1818782E082871386C4
:100C50000895789484B5826084BD84B5816084BD34
:100C600085B5826085BD85B5816085BD80916E004A
:100C7000816080936E00109281008091810082607B
:100C800080938100809181008160809381008091B8
:100C900080008160809380008091B10084608093A7
:100CA000B1008091B00081608093B00080917A00A3
:100CB000846080937A0080917A00826080937A00C9
:100CC00080917A00816080937A0080917A008068B8
:100CD00080937A001092C10010924F0210924E023F
:100CE00010924D0210924C020E94C2018CE691E0DB
:100CF00090934B0280934A028DE691E090934902D3
:100D00008093480210927B0280918002823018F01A
:100D100098E090937B0280937E0262E370E080E033
:100D200090E00E943A016091810286E792E00E9481
:100D3000870268EE73E080E090E00E943A0160E391
:100D400086E792E00E94B703CBE4D6E4CE01019798
:100D5000F1F760E386E792E00E94B7032197F1F78D
:100D600060E386E792E00E94B70383E592E0019793
:100D7000F1F760E286E792E00E94B70360917B02A0
:100D8000606240E086E792E00E94D00384E08093B6
:100D90007C0240E06CE086E792E00E94D00340E0F5
:100DA00061E086E792E00E94D003CBE3DFE1CE0171
:100DB0000197F1F782E080937D0240E066E086E7EC
:100DC00092E00E94D00340E062E086E792E00E9459
:100DD000D003CE010197F1F788E08093810260E0B3
:100DE00086E792E00E94870260E089E00E94E400CA
:100DF00061E082E00E94E40061E083E00E94E400A0
:100E000061E084E00E94E40061E08CE00E94E40084
:100E100080E00E94E70387E291E00E94720381E094
:100E20000E94E70384E391E00E94720368EE73E09E
:100E300080E090E00E943A0140E061E086E792E0C5
:100E40000E94D0032197F1F754EA252E50E0352E69
:100E500060E9462E60E0562E79E6C72E7AE0D72E5E
:100E6000E2E7EE2EE0E0FE2E0FE910E0F8E08F2E34
:100E7000F7E09F2EA12CB12C40E0642E40E0742EB0
:100E8000E8EBF0E08491F101C491F201D491DD230B
:100E900009F4FFC081110E948D00ED2FF0E0EE0FEC
:100EA000FF1FE859FF4FA591B4918C918C2309F451
:100EB000F0C061E082E00E94B60060E083E00E9442
:100EC000B60080910001843029F5F701C491C7FD77
:100ED000BFC061E084E00E94E400CC2309F48BC031
:100EE000C23009F09CC08091B100887F83608093FC
:100EF000B10082E58093B300809255029092560231
:100F0000A0925702B0925802809170008260809344
:100F100070009EC08F3F09F09BC084E08093000169
:100F2000F701C491CF3F09F493C0C13021F150F0D3
:100F3000C23009F43EC0C7FD8BC061E084E00E946E
:100F4000E400CECF14BC15BC84B5826084BD85B5E9
:100F5000816085BDEBE8F0E08491E82FF0E0EE0FD2
:100F6000FF1FE358FF4F85919491F801849180937E
:100F70005402C0E0AECF10928000109281008091A8
:100F800081008860809381008091810081608093DE
:100F90008100EBE8F0E08491E82FF0E0EE0FFF1F16
:100FA000E358FF4F85919491F80184918093530207
:100FB00090CF1092B0001092B1008091B00082608A
:100FC0008093B0008091B10081608093B100EBE824
:100FD000F0E08491E82FF0E0EE0FFF1FE358FF4FA1
:100FE000859194919093520280935102F8018491DB
:100FF000809350026ECF85B5887F836085BD88E27F
:1010000087BD80925D0290925E02A0925F02B092D4
:10101000600280916E00826080936E0019C0C130C2
:1010200081F580918100887F816080938100D092DA
:101030008900C09288008092590290925A02A09230
:101040005B02B0925C0280916F00826080936F00BF
:1010500061E08CE00E94B60080E00E94E70381E43A
:1010600091E00E94720381E00E94E70389E591E02C
:101070000E9472036114710409F402CF0E940000FF
:10108000FBCEC23021F0C111E3CF89E6B9CF89E6AA
:1010900031CF60E082E00E94B60061E083E00E9410
:1010A000B60060E084E00E94B60060E08CE00E9440
:1010B000B60080E00E94E7038FE691E00E94720391
:1010C00081E00E94E70380E891E0D2CFEE0FFF1F9E
:0C10D0000590F491E02D0994F894FFCFF6
:1010DC00FF00004000140054000000000058022BD8
:1010EC00026F030102240211020202000000001828
:1010FC00046E016F036E0345505320454E47494E15
:10110C0045455200464952452050524F4A4543549A
:10111C0000414C455254204649524520494E20200E
:10112C00202020202020202000494E20524F4F4DBF
:10113C002031202020202020202020202020004E84
:10114C004F524D414C204F5045524154494F4E0047
:10115C00494E20524F4F4D2031202020202020205E
:06116C00202020200000FD
:00000001FF
