:100000000C945D000C9485000C9485000C94850084
:100010000C9485000C9485000C9485000C9485004C
:100020000C9485000C9485000C9485000C9494032A
:100030000C9485000C9485000C9485000C9485002C
:100040000C94F2020C9485000C9462030C943C0313
:100050000C9485000C9485000C9485000C9485000C
:100060000C9485000C94850000000008000201003B
:100070000003040700000000000000000000000072
:10008000250028002B0000000000240027002A0083
:10009000040404040404040402020202020203032E
:1000A0000303030301020408102040800102040836
:1000B0001020010204081020500411241FBECFEFAD
:1000C000D8E0DEBFCDBF11E0A0E0B1E0E4E4FDE0A8
:1000D00002C005900D92A23BB107D9F722E0A2EB36
:1000E000B1E001C01D92A438B207E1F710E0CDE500
:1000F000D0E004C02197FE010E949A06CC35D107BA
:10010000C9F70E94AD040C94A0060C94000090E086
:10011000FC01EC55FF4F249180579F4FFC018491C7
:10012000882399F090E0880F991FFC01EA57FF4F50
:10013000A591B491FC01E458FF4F859194918FB73C
:10014000F894EC91E22BEC938FBF0895CF92DF925D
:10015000EF92FF92DC01A03282E0B807D4F5A53B14
:10016000B10514F0A4EBB0E04091820228E830E041
:10017000241B310947FD3395220F331F220F331FF4
:100180006901330FEE08FF084091830228E532E051
:10019000241B310947FD3395220F331F220F331FD4
:1001A000032E000C440B550B2C193D094E095F0919
:1001B000B7FF02C0B0E0A0E00E94550624EB30E09B
:1001C00040E050E00E942B06C20ED31EE41EF51E36
:1001D000D601E0918102EC3080F52091820288E81E
:1001E00090E0821B910927FD9395880F991F880F36
:1001F000991FA817B90784F02091830288E592E03F
:10020000821B910927FD9395880F991F880F991FCD
:10021000A817B9070CF4CD010297880F991F4FB7A3
:10022000F8942E2F30E0F901EE0FFF1FE20FF31FBD
:10023000E45AFD4F928381834FBFFF90EF90DF9090
:10024000CF90089590E0FC01E859FF4F2491FC0104
:10025000EC55FF4F3491FC01E057FF4FE491EE2342
:10026000C9F0222339F0233001F1A8F4213019F12B
:10027000223029F1F0E0EE0FFF1FE458FF4FA59167
:10028000B4918FB7F894EC91611126C030953E235C
:100290003C938FBF08952730A9F02830C9F024304F
:1002A00049F7809180008F7D03C0809180008F7717
:1002B00080938000DFCF84B58F7784BDDBCF84B59A
:1002C0008F7DFBCF8091B0008F778093B000D2CF2D
:1002D0008091B0008F7DF9CF3E2BDACF3FB7F894F5
:1002E0008091BB019091BC01A091BD01B091BE0174
:1002F00026B5A89B05C02F3F19F00196A11DB11D81
:100300003FBFBA2FA92F982F8827BC01CD01620FBC
:10031000711D811D911D42E0660F771F881F991F77
:100320004A95D1F708958F929F92AF92BF92CF9244
:10033000DF92EF92FF920E946E014B015C018FE011
:10034000C82ED12CE12CF12C0E946E01681979097C
:100350008A099B09683E734081059105A8F321E055
:10036000C21AD108E108F10888EE880E83E0981ED1
:10037000A11CB11CC114D104E104F10429F7FF90C0
:10038000EF90DF90CF90BF90AF909F908F900895A7
:10039000AF92BF92CF92DF92EF92FF920F931F9393
:1003A000CF93DF936C017B018B01040F151FEB01D1
:1003B0005E01AE18BF08C017D10759F06991D60188
:1003C000ED91FC910190F081E02DC6010995892BFA
:1003D00079F7C501DF91CF911F910F91FF90EF90B9
:1003E000DF90CF90BF90AF900895FC01538D448D66
:1003F000252F30E0842F90E0821B930B541710F0D0
:10040000CF96089501970895FC01918D828D9817DC
:1004100061F0A28DAE0FBF2FB11D5D968C91928DB4
:100420009F5F9F73928F90E008958FEF9FEF0895E5
:10043000FC01918D828D981731F0828DE80FF11DAE
:10044000858D90E008958FEF9FEF0895FC01918DC9
:10045000228D892F90E0805C9F4F821B91098F73C2
:10046000992708958FEB91E00E94260221E0892BC5
:1004700009F420E0822F089580E090E0892B29F094
:100480000E94320281110C9400000895FC01A48D99
:10049000A80FB92FB11DA35ABF4F2C91848D90E0A6
:1004A00001968F739927848FA689B7892C93A08989
:1004B000B1898C91837080648C93938D848D981313
:1004C00006C00288F389E02D80818F7D80830895A6
:1004D000EF92FF920F931F93CF93DF93EC0181E094
:1004E000888F9B8D8C8D98131AC0E889F98980813B
:1004F00085FF15C09FB7F894EE89FF896083E8896E
:10050000F98980818370806480839FBF81E090E05F
:10051000DF91CF911F910F91FF90EF900895F62EEC
:100520000B8D10E00F5F1F4F0F731127E02E8C8D86
:100530008E110CC00FB607FCFACFE889F9898081CB
:1005400085FFF5CFCE010E944602F1CFEB8DEC0F77
:10055000FD2FF11DE35AFF4FF0829FB7F8940B8FE8
:10056000EA89FB8980818062CFCFCF93DF93EC0152
:10057000888D8823B9F0AA89BB89E889F9898C918B
:1005800085FD03C0808186FD0DC00FB607FCF7CF47
:100590008C9185FFF2CF808185FFEDCFCE010E9447
:1005A0004602E9CFDF91CF910895CF93DF93FC010D
:1005B00001900020E9F73197AF01481B590BBC01AE
:1005C0008FEB91E00E94C801EC0142E050E062E153
:1005D00071E08FEB91E00E94C8018C0F9D1FDF91AD
:1005E000CF9108951F920F920FB60F9211242F935F
:1005F0003F938F939F93AF93BF938091B701909157
:10060000B801A091B901B091BA013091B60123E0CF
:10061000230F2D3758F50196A11DB11D2093B6016A
:100620008093B7019093B801A093B901B093BA0138
:100630008091BB019091BC01A091BD01B091BE0120
:100640000196A11DB11D8093BB019093BC01A093A5
:10065000BD01B093BE01BF91AF919F918F913F912A
:100660002F910F900FBE0F901F90189526E8230F23
:100670000296A11DB11DD2CF1F920F920FB60F92FD
:1006800011242F933F934F935F936F937F938F9397
:100690009F93AF93BF93EF93FF938FEB91E00E94F3
:1006A0004602FF91EF91BF91AF919F918F917F9102
:1006B0006F915F914F913F912F910F900FBE0F90CF
:1006C0001F9018951F920F920FB60F9211242F931F
:1006D0008F939F93EF93FF93E091CF01F091D0011F
:1006E0008081E091D501F091D60182FD1BC09081FF
:1006F0008091D8018F5F8F732091D901821741F0CB
:10070000E091D801F0E0E154FE4F958F8093D8013D
:10071000FF91EF919F918F912F910F900FBE0F90AE
:100720001F9018958081F4CF1F920F920FB60F92F1
:1007300011242F933F934F935F936F937F938F93E6
:100740009F93AF93BF93CF93DF93EF93FF938091EA
:10075000B201C0918002D0E087FF24C010928500D2
:10076000109284008091B2018F5F8093B2018091DA
:10077000B201082E000C990B8C179D0724F4809170
:10078000B2018C30C4F18091840090918500049670
:1007900080349C4908F47AC080918400909185004F
:1007A000049676C08091B201082E000C990B8C172C
:1007B0009D07C4F6E091B2018E2FEE0F990BFC015C
:1007C000EE0FFF1FE80FF91FE45AFD4F808186FFEF
:1007D000C9CFE091B2018E2FEE0F990BFC01EE0F05
:1007E000FF1FE80FF91FE45AFD4F808160E08F730F
:1007F0000E942201B7CF2091840030918500E091C2
:10080000B2018E2FEE0F990BFC01EE0FFF1FE80FC8
:10081000F91FE45AFD4F81819281820F931F9093BB
:10082000890080938800E091B2018E2FEE0F990B22
:10083000FC01EE0FFF1FE80FF91FE45AFD4F808106
:1008400086FF11C0E091B2018E2FEE0F990BFC01D3
:10085000EE0FFF1FE80FF91FE45AFD4F808161E0A2
:100860008F730E942201FF91EF91DF91CF91BF9191
:10087000AF919F918F917F916F915F914F913F9138
:100880002F910F900FBE0F901F90189580E49CE958
:1008900090938900809388008FEF8093B201E3CF1B
:1008A0001092C2011092C10188EE93E0A0E0B0E086
:1008B0008093C3019093C401A093C501B093C60176
:1008C00084E091E09093C0018093BF0185EC90E0BB
:1008D0009093CC018093CB0184EC90E09093CE0177
:1008E0008093CD0180EC90E09093D0018093CF0174
:1008F00081EC90E09093D2018093D10182EC90E062
:100900009093D4018093D30186EC90E09093D6012C
:100910008093D5011092D8011092D9011092DA017A
:100920001092DB01809180028C3098F491E0980F56
:10093000909380028093810290E0FC01EE0FFF1FF4
:10094000E80FF91FE45AFD4F88EB9BE09283818307
:1009500008958FEF809381020895789484B5826022
:1009600084BD84B5816084BD85B5826085BD85B553
:10097000816085BD80916E00816080936E001092D1
:10098000810080918100826080938100809181004C
:1009900081608093810080918000816080938000DD
:1009A0008091B10084608093B1008091B00081603B
:1009B0008093B00080917A00846080937A00809167
:1009C0007A00826080937A0080917A0081608093BF
:1009D0007A0080917A00806880937A001092C1003A
:1009E000E091CF01F091D00182E08083E091CB01D2
:1009F000F091CC011082E091CD01F091CE018FEC0D
:100A000080831092D701E091D301F091D40186E068
:100A10008083E091D101F091D20180818061808357
:100A2000E091D101F091D201808188608083E091D2
:100A3000D101F091D201808180688083E091D10161
:100A4000F091D20180818F7D8083809181028C30F2
:100A500008F050C089E00E94870080918102282F11
:100A600030E0F901EE0FFF1FE20FF31FE45AFD4FD4
:100A70009081907C99609083109282021092830200
:100A80002CE0622F0E948E06829FB001112430E07C
:100A900020E0AB01420F531FFA01EE0FFF1FE40FDE
:100AA000F51FE45AFD4F908196FD16C02F5F3F4F12
:100AB0002C30310571F781110FC01092800082E057
:100AC000809381001092850010928400B19A8091E9
:100AD0006F00826080936F00E09181028E2F90E022
:100AE000FC01EE0FFF1FE80FF91FE45AFD4F808154
:100AF0008064808382E00E9487008AE00E948700F1
:100B000085E191E00E94D50200E010E084EBE82E40
:100B1000F12C8FEB91E00E942602892B09F48FC003
:100B20008FEB91E00E9404028093B5018633D1F4EB
:100B30001092B4011092B301C091B301D091B401ED
:100B4000C53BD1055CF4CE010E94A6000E94930132
:100B50002196D093B401C093B301EECF8DE291E022
:100B60000E94D5028091B5018733C9F4F092B40197
:100B7000E092B301C091B301D091B401D7FD0BC095
:100B8000CE010E94A6000E9493012197D093B40148
:100B9000C093B301EFCF8BE391E00E94D502809127
:100BA000B501843341F461E082E00E94220187E4D0
:100BB00091E00E94D5028091B501813341F460E05B
:100BC00082E00E9422018CE591E00E94D502809192
:100BD000B501853341F461E08AE00E94220182E799
:100BE00091E00E94D5028091B501823341F460E02A
:100BF0008AE00E94220183E891E00E94D502809160
:100C0000B501893361F461E082E00E94220161E074
:100C10008AE00E94220185E991E00E94D50280913C
:100C2000B501803361F460E082E00E94220160E05F
:100C30008AE00E94220183EA91E00E94D502011518
:100C4000110509F466CF0E943202882309F461CFAE
:100C50000E9400005ECF052E97FB1EF400940E94B8
:100C6000420657FD07D00E945D0607FC03D04EF4F4
:100C70000C94420650954095309521953F4F4F4F2B
:100C80005F4F089590958095709561957F4F8F4F38
:100C90009F4F08950E947F06A59F900DB49F900DD1
:100CA000A49F800D911D11240895B7FF0C944A064E
:100CB0000E944A06821B930B0895A1E21A2EAA1BDA
:100CC000BB1BFD010DC0AA1FBB1FEE1FFF1FA217FC
:100CD000B307E407F50720F0A21BB30BE40BF50BF9
:100CE000661F771F881F991F1A9469F76095709582
:100CF000809590959B01AC01BD01CF010895A29F05
:100D0000B001B39FC001A39F700D811D1124911DDF
:100D1000B29F700D811D1124911D0895991B79E0DA
:100D200004C0991F961708F0961B881F7A95C9F77B
:100D300080950895EE0FFF1F0590F491E02D099422
:040D4000F894FFCF55
:100D4400000000006802C801F501B5022602040291
:100D540018020D0A00536D61727420486F6D65208E
:100D640053797374656D20526561647900446F6FC3
:100D74007220554E4C4F434B454400446F6F7220D4
:100D84004C4F434B4544004C6976696E6720526F63
:100D94006F6D204C69676874204F4E004C6976690A
:100DA4006E6720526F6F6D204C69676874204F46E0
:100DB4004600426564726F6F6D204C6967687420E9
:100DC4004F4E00426564726F6F6D204C69676874A2
:100DD400204F464600414C4C204C49474854532030
:100DE4004F4E00414C4C204C4947485453204F46E9
:020DF4004600B7
:00000001FF
