:020000040000FA
:100000000C945D000C9485000C9485000C94850084
:100010000C9485000C9485000C9485000C9485004C
:100020000C9485000C9485000C9485000C9485003C
:100030000C9485000C9485000C9485000C9485002C
:100040000C949E030C9485000C9485000C94850000
:100050000C9485000C9485000C9485000C9485000C
:100060000C94E8030C948500000000002400270095
:100070002A0000000000250028002B0004040404CE
:100080000404040402020202020203030303030342
:10009000010204081020408001020408102001021F
:1000A00004081020000000080002010000030407FB
:1000B0000000000000000000070511241FBECFEF64
:1000C000D8E0DEBFCDBF11E0A0E0B1E0E4EDFCE0A0
:1000D00002C005900D92A033B107D9F722E0A0E34A
:1000E000B1E001C01D92AB30B207E1F710E0CDE501
:1000F000D0E004C02197FE010E946206CC35D107F2
:10010000C9F70E9427050C9468060C94000090E043
:10011000FC01EC55FF4F2491FC01E057FF4F349157
:10012000FC01E458FF4FE491EE23C9F0222339F09B
:10013000233001F1A8F4213019F1223029F1F0E047
:10014000EE0FFF1FEE58FF4FA591B4918FB7F894B3
:10015000EC91611126C030953E233C938FBF0895EA
:100160002730A9F02830C9F0243049F78091800069
:100170008F7D03C0809180008F7780938000DFCFD8
:1001800084B58F7784BDDBCF84B58F7DFBCF809125
:10019000B0008F778093B000D2CF8091B0008F7D78
:1001A000F9CF3E2BDACF3FB7F8948091EF019091D1
:1001B000F001A091F101B091F20126B5A89B05C014
:1001C0002F3F19F00196A11DB11D3FBFBA2FA92FD6
:1001D000982F8827BC01CD01620F711D811D911DD3
:1001E00042E0660F771F881F991F4A95D1F708953F
:1001F0008F929F92AF92BF92CF92DF92EF92FF9237
:100200004B015C010E94D3006B017C010E94D30072
:100210006C197D098E099F09683E7340810591051F
:10022000A8F321E0821A9108A108B10888EEC80E4F
:1002300083E0D81EE11CF11C81149104A104B104D7
:1002400029F7FF90EF90DF90CF90BF90AF909F90F5
:100250008F90089508950895AF92BF92CF92DF9244
:10026000EF92FF920F931F93CF93DF936C017B016B
:100270008B01040F151FEB015E01AE18BF08C017FC
:10028000D10759F06991D601ED91FC910190F0816F
:10029000E02DC6010995892B79F7C501DF91CF9132
:1002A0001F910F91FF90EF90DF90CF90BF90AF9094
:1002B000089520919801260F3327331F21323105ED
:1002C000ECF42091BC01FC0190E080E0243069F066
:1002D00082E00895A09198012191AC0148585E4FA9
:1002E000A40FB52FB11D2C930196861798F380911A
:1002F0009801680F6093980180E0089581E0089567
:100300001092BC0181E08093BE011092BD0161E0BA
:1003100082E10E94870061E083E10E948700E9EBAF
:10032000F0E080818E7F808380818D7F808388E470
:100330008093B80085E48093BC000895CF93DF9349
:1003400091E0909377018823B9F0C091B800D091E3
:10035000BA008091BC008A7B8093BC0060E082E19F
:100360000E94870060E083E10E9487000E94800174
:10037000D093BA00C093B800DF91CF91089508954B
:10038000E091E9018091E801E81730F4F0E0EE5ADD
:10039000FE4F808190E008958FEF9FEF0895909138
:1003A000E9018091E8012FEF3FEF981748F4E92F1A
:1003B000F0E0EE5AFE4F208130E09F5F9093E9011C
:1003C000C90108958091E8019091E901891B990B79
:1003D0000895CF92DF92EF92FF920F931F93CF93E6
:1003E000DF937C01CB018A0120915101222389F006
:1003F000EB016B01C40ED51ECC15DD0569F06991CA
:10040000D701ED91FC910190F081E02DC701099594
:10041000F3CF642F0E945901C801DF91CF911F9142
:100420000F91FF90EF90DF90CF900895CF93DF93DF
:100430001F92CDB7DEB76983209151012223F9F0D5
:100440002091E601203258F021E030E0FC013383B6
:10045000228390E080E00F90DF91CF91089580910A
:10046000E701E82FF0E0EF5CFE4F998190838F5F0A
:100470008093E7018093E60181E090E0ECCF61E0BA
:10048000CE0101960E945901F7CFCF92DF92EF92F1
:10049000FF920F931F93CF93DF93FC01C48121E060
:1004A00020935101C09330011092E7011092E601B0
:1004B0008385682B83EF91E00E941602D091E601BC
:1004C000D13208F092C00E94D3006B017C01809170
:1004D000BC01811165C082E08093BC0181E0809302
:1004E000BE018FEF8093BB011092E001D093DF013A
:1004F000A1E3B1E0EFEBF1E080E0D81385C010920A
:10050000E1018091E101CC0FC82BC093E101809102
:10051000BD01813009F07CC01092BD010E94D30062
:100520006B017C018091E1018093BB00809173019C
:1005300090917401A0917501B0917601892B8A2B5D
:100540008B2B99F00E94D3000091730110917401DC
:1005500020917501309176016C197D098E099F09F2
:100560000617170728073907E0F18091BC0083FDC3
:10057000D9CF85EC8093BC000E94D3006B017C0135
:100580008091BC01823009F445C08091BB018F3F4E
:1005900061F18091BB01803241F18091BB0125C0A6
:1005A0008091730190917401A0917501B0917601D1
:1005B000892B8A2B8B2B09F48ACF0E94D3000091C0
:1005C00073011091740120917501309176016C19BD
:1005D0007D098E099F09061717072807390708F0B4
:1005E00076CF809172010E949E011092E7011092D5
:1005F000E60110925101DF91CF911F910F91FF9071
:10060000EF90DF90CF9008959D9191938F5F75CF7C
:1006100085EEB0CF8091730190917401A091750126
:10062000B0917601892B8A2B8B2B09F4A9CF0E94DC
:10063000D3000091730110917401209175013091E4
:1006400076016C197D098E099F090617170728077F
:10065000390708F095CFC5CF089590E080E0089560
:1006600085ED8093BC008091730190917401A091FD
:100670007501B09176010796A11DB11D23E0B695D5
:10068000A795979587952A95D1F72091BC0024FDD1
:1006900003C01092BC010895409173015091740100
:1006A0006091750170917601452B462B472B69F3BC
:1006B0000097A105B10541F02AE22A95F1F700C0A3
:1006C0000197A109B109E1CF809172010C949E01BB
:1006D0000F931F93CF938C01C62F0E9445026C2F5E
:1006E0006460C8010E9445026C2F6B7FC8010E94A4
:1006F000450283EC90E00197F1F7CF911F910F91A4
:1007000008950F931F93CF93DF938C01D62FC42F9F
:10071000607F642B0E94680380E1D89FB0011124A0
:100720006C2BC801DF91CF911F910F910C9468033E
:1007300041E00E94810381E090E008951F920F92B2
:100740000FB60F9211242F933F938F939F93AF93E4
:10075000BF938091EB019091EC01A091ED01B091DC
:10076000EE013091EA0123E0230F2D3758F5019671
:10077000A11DB11D2093EA018093EB019093EC0140
:10078000A093ED01B093EE018091EF019091F00103
:10079000A091F101B091F2010196A11DB11D8093CC
:1007A000EF019093F001A093F101B093F201BF919A
:1007B000AF919F918F913F912F910F900FBE0F900E
:1007C0001F90189526E8230F0296A11DB11DD2CFC8
:1007D0001F920F920FB60F9211242F933F934F93B6
:1007E0005F936F937F938F939F93AF93BF93EF9399
:1007F000FF938091B900887F803609F44AC0F0F5F4
:10080000883209F4A7C018F5803109F49BC0B8F408
:10081000882309F4F9C0883009F494C0FF91EF915E
:10082000BF91AF919F918F917F916F915F914F9108
:100830003F912F910F900FBE0F901F901895883108
:1008400009F488C0803251F78093BB0114C0803412
:1008500009F49DC040F48033B9F38833F9F68093EE
:10086000BB0185ECB0C0803509F485C0883509F43A
:1008700096C0883499F60E943003D0CF883909F4A5
:100880008CC038F5883729F050F4883611F080375D
:1008900029F683E08093BC011092BA0157C08838D2
:1008A00009F47BC0803919F0803809F0B7CF809106
:1008B000BA01803208F071C0E091BA0181E08E0F78
:1008C0008093BA018091BB00F0E0E656FE4F808332
:1008D0003DC0803B39F0E0F4803A09F479C0883AB1
:1008E00009F09CCF84E08093BC0110929901109292
:1008F0009801E091E401F091E5010995809198015A
:1009000081110FC081E0809398011092780109C095
:10091000803C09F4A6CF883C09F4A3CF883B09F0BA
:100920007DCFE091990181E08E0F80939901F0E0F5
:10093000E858FE4F80818093BB009091990180918F
:10094000980129C08091E1018093BB0085EC8093E0
:10095000BC0064CF9091E0018091DF01981758F5B9
:10096000E091E00181E08E0F8093E001F0E0E1543E
:10097000FE4F8081E9CFE091E00181E08E0F80930E
:10098000E0018091BB00F0E0E154FE4F8083909144
:10099000E0018091DF019817C8F285E8D8CFE09197
:1009A000E00181E08E0F8093E0018091BB00F0E0D8
:1009B000E154FE4F80838091BE0181115CCF81E0C4
:1009C0008093BD0184EA8093BC001092BC0126CFC5
:1009D00085EC8093BC001092BC018091BA018032FA
:1009E00030F4E091BA01F0E0E656FE4F10826091DB
:1009F000BA0170E0E091E201F091E3018AE991E04F
:100A000009951092BA010ACF1092BB0134CFE3EFDF
:100A1000F1E01382128288EE93E0A0E0B0E08483DC
:100A20009583A683B78384E091E091838083EFEF81
:100A3000F1E01382128286E191E09183808387E264
:100A4000848380E1818782E0828713860895789489
:100A500084B5826084BD84B5816084BD85B58260C3
:100A600085BD85B5816085BD80916E008160809374
:100A70006E001092810080918100826080938100DD
:100A800080918100816080938100809180008160ED
:100A9000809380008091B10084608093B100809148
:100AA000B00081608093B00080917A008460809370
:100AB0007A0080917A00826080937A0080917A0037
:100AC000816080937A0080917A00806880937A00B8
:100AD0001092C100EEE9F0E02491EAE8F0E08491A0
:100AE0008823C1F090E0880F991FFC01E859FF4F5F
:100AF000C591D491FC01EE58FF4FA591B4919FB7D9
:100B0000F8948881E22FE0958E2388838C91E823E6
:100B1000EC939FBFEBE9F0E02491E7E8F0E08491EB
:100B2000882399F090E0880F991FFC01E859FF4F46
:100B3000A591B491FC01EE58FF4F859194918FB728
:100B4000F894EC91E22BEC938FBF1092E901109294
:100B5000E8011092E7011092E6010E9480018AE20A
:100B600091E09093E5018093E4018BE291E0909312
:100B7000E3018093E2011092040280910902823025
:100B800018F098E0909304028093070262E370E00B
:100B900080E090E00E94F80060910A028FEF91E0FF
:100BA0000E94450268EE73E080E090E00E94F80049
:100BB00060E38FEF91E00E946803CBE4D6E4CE01BE
:100BC0000197F1F760E38FEF91E00E9468032197AE
:100BD000F1F760E38FEF91E00E94680383E592E014
:100BE0000197F1F760E28FEF91E00E946803609156
:100BF0000402606240E08FEF91E00E94810384E094
:100C00008093050240E06CE08FEF91E00E94810349
:100C100040E061E08FEF91E00E948103CBE3DFE1F0
:100C2000CE010197F1F782E08093060240E066E092
:100C30008FEF91E00E94810340E062E08FEF91E04E
:100C40000E9481032197F1F788E080930A0260E017
:100C50008FEF91E00E944502C0E400E010E040E028
:100C600061E88FEF91E00E948103C0937C00809146
:100C70007A00806480937A0080917A0086FDFCCFB0
:100C800080917800909179001816190694F461E02B
:100C90008BE00E94870049E050E06EE171E08FEF49
:100CA00091E00E942C0101151105C9F20E9400007B
:100CB000D6CF60E08BE00E94870046E050E068E21B
:100CC00071E0EDCFEE0FFF1F0590F491E02D099438
:100CD000F894FFCF000000001602E9012D03BF01C8
:100CE000E201CF01C0010000000098032C012D0398
:100CF0002C03507572696E672E2E2E0053746F7020
:040D00006564000026
:107E0000112484B714BE81FFF0D085E080938100F7
:107E100082E08093C00088E18093C10086E0809377
:107E2000C20080E18093C4008EE0C9D0259A86E02C
:107E300020E33CEF91E0309385002093840096BBD3
:107E4000B09BFECF1D9AA8958150A9F7CC24DD24C4
:107E500088248394B5E0AB2EA1E19A2EF3E0BF2EE7
:107E6000A2D0813461F49FD0082FAFD0023811F036
:107E7000013811F484E001C083E08DD089C08234E0
:107E800011F484E103C0853419F485E0A6D080C0E4
:107E9000853579F488D0E82EFF2485D0082F10E0AE
:107EA000102F00270E291F29000F111F8ED06801E7
:107EB0006FC0863521F484E090D080E0DECF843638
:107EC00009F040C070D06FD0082F6DD080E0C81688
:107ED00080E7D80618F4F601B7BEE895C0E0D1E017
:107EE00062D089930C17E1F7F0E0CF16F0E7DF06D8
:107EF00018F0F601B7BEE89568D007B600FCFDCFD4
:107F0000A601A0E0B1E02C9130E011968C91119780
:107F100090E0982F8827822B932B1296FA010C0160
:107F200087BEE89511244E5F5F4FF1E0A038BF0790
:107F300051F7F601A7BEE89507B600FCFDCF97BE46
:107F4000E89526C08437B1F42ED02DD0F82E2BD052
:107F50003CD0F601EF2C8F010F5F1F4F84911BD097
:107F6000EA94F801C1F70894C11CD11CFA94CF0C13
:107F7000D11C0EC0853739F428D08EE10CD085E9AC
:107F80000AD08FE07ACF813511F488E018D01DD067
:107F900080E101D065CF982F8091C00085FFFCCF94
:107FA0009093C60008958091C00087FFFCCF809118
:107FB000C00084FD01C0A8958091C6000895E0E648
:107FC000F0E098E1908380830895EDDF803219F02E
:107FD00088E0F5DFFFCF84E1DECF1F93182FE3DFCA
:107FE0001150E9F7F2DF1F91089580E0E8DFEE27F6
:047FF000FF270994CA
:027FFE00040479
:00000001FF
